S01200004C45445F5354525543542E73726563F9
S113000045C000004BC0000049C0000047C00000CC
S113001045C0000043C0000041C000003FC00000D4
S11300203DC000003BC0000039C0000037C00000E4
S113003035C0000033C0000031C000002FC00000F4
S11300402DC000002BC0000029C0000027C0000004
S113005025C0000023C0000021C000001FC0000014
S11300601DC000001BC0000019C0000017C0000024
S113007015C0000013C0000011C000000FC0000034
S11300800DC000000BC0000009C0000011241FBEF9
S1130090CFEFD0E1DEBFCDBF4CD07BC0B1CFDC0110
S11300A0ED91FC911197429121E030E0C901129643
S11300B00C9002C0880F991F0A94E2F7842B808366
S11300C00895DC01ED91FC911197429121E030E01B
S11300D0C90112960C9002C0880F991F0A94E2F786
S11300E0842B80830895DC01ED91FC91119740816C
S11300F021E030E0C90112960C9002C0880F991FCC
S11301000A94E2F7842B80830895DC01ED91FC913D
S11301101197408121E030E0B90112960C9002C0A1
S1130120660F771F0A94E2F7CB01809584238083BE
S11301300895CF93DF9300D01F92CDB7DEB782E34B
S113014090E09A8389831B82CE010196A8DF10E098
S11301501DC01B83CE010196B4DFCE010196C3DF1F
S11301602FEF85EA9EE0215080409040E1F700C0E7
S11301700000CE010196C9DF2FEF85EA9EE02150F1
S113018080409040E1F700C000001F5F183008F382
S1090190DECFF894FFCF5E
S9030000FC
