:1000000045C0000060C000005EC000005CC0000091
:100010005AC0000058C0000056C0000054C0000084
:1000200052C0000050C000004EC000004CC0000094
:100030004AC0000048C0000046C0000044C00000A4
:1000400043C0000040C000003EC000003CC00000B3
:100050003AC0000038C0000036C0000034C00000C4
:1000600032C0000030C000002EC000002CC00000D4
:100070002AC0000028C0000026C0000024C00000E4
:1000800022C0000020C000001EC0000011241FBEBE
:10009000CFEFD0E1DEBFCDBF11E0A0E0B1E0E6E2FE
:1000A000F3E000E00BBF02C007900D92A631B1074C
:1000B000D9F721E0A6E1B1E001C01D92A931B20754
:1000C000E1F7B0D02EC19CCF1F920F920FB60F92C6
:1000D00011248F93809118018F5F80931801809174
:1000E00018018A3F39F41092180180910001815063
:1000F000809300018F910F900FBE0F901F90189565
:10010000CF93DF93CDB7DEB72A970FB6F894DEBF53
:100110000FBECDBF9AE0EBE0F1E0DE011196019059
:100120000D929A95E1F7909116019130D1F030F04F
:10013000923061F1933009F44BC065C098B39E7F53
:1001400098BB98B39E6098BB90E068EE73E0C2D015
:10015000E1E0F0E0EC0FFD1FE60FF71F808185BBAB
:1001600052C098B39D7F98BB98B39D6098BB99E2AD
:10017000899F812D112482958F70E1E0F0E0EC0FD2
:10018000FD1FE80FF11D808185BB3DC098B39B7FAB
:1001900098BB98B39B6098BB9DEC899F812D1124DF
:1001A000869586958695899F912D1124969596958D
:1001B0009695990F292F220F220F920F891BE1E0AC
:1001C000F0E0EC0FFD1FE80FF11D808185BB1BC027
:1001D00098B3977F98BB98B3976098BB9DEC899F25
:1001E000912D1124969596959695990F292F220F6A
:1001F000220F920F891BE1E0F0E0EC0FFD1FE80FEA
:10020000F11D808185BB809116018F5F8370809383
:1002100016012A960FB6F894DEBF0FBECDBFDF9150
:10022000CF9108958FEF8ABB9FE097BB84BB81BBC2
:1002300012BA1092640087B3806187BB83B78E6661
:1002400083BF11BE789481E087BF8091630084FDF5
:1002500007C0809101018BBB11BE109217011EC017
:1002600083FD08C0809102018BBB8FE781BF109294
:10027000170114C082FD08C0809103018BBB85EE7D
:1002800081BF109217010AC081FD08C081E08093F0
:1002900017018AE0809300011092180180911701E4
:1002A000813071F4809100012BDF80910001811178
:1002B0000AC010921701809101018BBB11BE03C0CF
:1002C00088B38F6088BB8FE99FE00197F1F700C08A
:1002D0000000BBCF97FB072E16F4009406D077FDE5
:1002E00008D00BD007FC05D03EF4909581959F4F28
:1002F0000895709561957F4F0895AA1BBB1B51E12E
:1003000007C0AA1FBB1FA617B70710F0A61BB70B85
:10031000881F991F5A95A9F780959095BC01CD012A
:060320000895F894FFCFE0
:100326000A3F065B4F666D7D277F673F065B4F661C
:060336006D7D277F6700CA
:00000001FF
