:1000000045C000004BC0000049C0000047C00000D0
:1000100045C0000043C0000041C000003FC00000D8
:100020003DC000003BC0000039C0000037C00000E8
:1000300035C0000033C0000031C000002FC00000F8
:100040002DC000002BC0000029C0000027C0000008
:1000500025C0000023C0000021C000001FC0000018
:100060001DC000001BC0000019C0000017C0000028
:1000700015C0000013C0000011C000000FC0000038
:100080000DC000000BC0000009C0000011241FBEFD
:10009000CFEFD0E1DEBFCDBF17D041C0B1CF8FEFE2
:1000A00081BB089582BB0895FC01208130E0220FBE
:1000B000331F2083822FF6CF0895FC019081892F72
:1000C00086958083EFCF0895CF93DF931F92CDB7AE
:1000D000DEB7E5DF81E0898310E00DC0CE01019637
:1000E000E3DF2FEF83EC99E0215080409040E1F76F
:1000F00000C000001F5F173088F310E00DC0CE0174
:100100000196DBDF2FEF83EC99E021508040904097
:10011000E1F700C000001F5F173088F3DDCFF894CF
:02012000FFCF0F
:00000001FF
