:1000000045C000004BC0000049C0000047C00000D0
:1000100045C0000043C0000041C000003FC00000D8
:100020003DC000003BC0000039C0000037C00000E8
:1000300035C0000033C0000031C000002FC00000F8
:100040002DC000002BC0000029C0000027C0000008
:1000500025C0000023C0000021C000001FC0000018
:100060001DC000001BC0000019C0000017C0000028
:1000700015C0000013C0000011C000000FC0000038
:100080000DC000000BC0000009C0000011241FBEFD
:10009000CFEFD0E1DEBFCDBF46D07FC0B1CFFC01F6
:1000A0007183608353834283248381E08583FB01D2
:1000B000308181E090E002C0880F991F2A95E2F715
:1000C0008095832380830895FC01A281B3818C9164
:1000D00021E030E0048002C0220F331F0A94E2F7CF
:1000E000282371F48581813059F42FEF30E792E0B5
:1000F000215030409040E1F700C000001582089583
:10010000222381F0858181110DC02FEF30E782E03D
:10011000215030408040E1F700C0000081E085833D
:1001200082E008950895CF93DF93CDB7DEB762974D
:100130000FB6F894DEBF0FBECDBF8FEF81BB24E0BA
:1001400043E650E064E670E0CE010196A8DF23E0CC
:1001500043E650E064E670E0CE010796A0DF22E0BF
:1001600043E650E064E670E0CE010D9698DFCE01E4
:100170000196AADF823011F48FEF82BBCE01079681
:10018000A3DF823009F412BACE010D969DDF8230D2
:0E01900071F782B3809582BBEACFF894FFCF5F
:00000001FF
